:020000040000fa
:080000000001040000000000f3
:020000040000fa
:100008009e0100009e0100009e0100009e0100006c
:100018009e0100009e0100009e0100009e0100005c
:100028009e0100009e0100009e010000d204000015
:100038009e0100009e0100009e010000f2040000e5
:100048009e0100009e0100009e0100009e0100002c
:100058009e0100009e0100009e0100009e0100001c
:100068009e0100009e0100009e0100009e0100000c
:100078009e0100009e0100009e010000fe04000099
:100088009e0100009e0100009e0100009e010000ec
:100098009e0100009e0100009e0100009e010000dc
:1000a8009e0100009e0100009e0100009e010000cc
:1000b8009e0100009e0100009e0100009e010000bc
:1000c8009e0100009e0100009e0100009e010000ac
:1000d8009e0100009e0100009e0100009e0100009c
:1000e8009e0100009e0100009e0100009e0100008c
:0800f8009e0100009e010000c2
:020000040000fa
:100108009e0100009e0100009e0100009e0100006b
:100118009e0100009e0100009e0100009e0100005b
:100128009e0100009e0100009e010000d204000014
:100138009e0100009e0100009e010000f2040000e4
:100148009e0100009e0100009e0100009e0100002b
:100158009e0100009e0100009e0100009e0100001b
:100168009e0100009e0100009e0100009e0100000b
:100178009e0100009e0100009e010000fe04000098
:100188009e0100009e0100009e0100009e010000eb
:100198009e0100009e0100009e0100009e010000db
:1001a8009e0100009e0100009e0100009e010000cb
:1001b8009e0100009e0100009e0100009e010000bb
:1001c8009e0100009e0100009e0100009e010000ab
:1001d8009e0100009e0100009e0100009e0100009b
:1001e8009e0100009e0100009e0100009e0100008b
:0801f8009e0100009e010000c1
:020000040000fa
:100200000f8a20000eff20000e0188000000000071
:10021000000020000000e000020032000001200089
:10022000200288000c000700a0942000010020009c
:1002300011000700000020000000e0000200320072
:1002400000000200000000000009020000000000a1
:100250000040da000000fe004440a9000000200039
:100260000000e0000300320000002000a001880030
:100270004440a8000000060091018800800078003a
:100280000000eb0015003700e280400032a0b4000f
:100290009101ba00e280400032a0b4009102ba009d
:1002a000e280400032a0b4000002eb00472bde00e9
:1002b000f507b200602ce10004003a000059eb00a1
:1002c0008301e900fdff3e00040037006128e100e2
:1002d000010032000082eb00040007001101ba00a7
:1002e0000200e000e8ff3a00000006003159ba00c1
:1002f0008301e9000c0032002159ba008301e900b2
:10030000080032000400e00003003a00e2804000f0
:1003100032a0b400f5ff370011d9ba008301e9001b
:10032000faff3a008100e800e180400032a0b4000a
:100330000000060000000000000000000040da009d
:100340000000fe0081037800800178000702780039
:100350000100370085017800110009000282d800f1
:100360008302e80000027800e00f5200f9ff3a0033
:10037000844a7800110009008283d8008002780046
:100380000142780085037800e94f520001003400f3
:100390006742420001c3b30081514200e08f520026
:1003a000f4ff3a000300780000000600881f780080
:1003b00000047800e08f500005003d000800780040
:1003c000d4c2b3008100ea0004587800010037006d
:1003d00008007800dbff0700080078004f04780071
:1003e00000000600000278008042eb00b4cf12004b
:1003f000fdff3a000080ea00000042000000060015
:020000040000fa
:100400000000fa00d4002000d41088000000000092
:10041000c51080000410200004826200e00f52002a
:10042000fbff3200a4002000d41088000000000070
:10043000c51080000410200004826200e00f52000a
:10044000fbff32000080fa00000006000600fa0000
:1004500010079800210798000042eb00044f780035
:100460000e0037009e4278000582fb009e0290003d
:1004700004824200144278000402fb00d410880079
:1004800000000000c51080000410200004826200fb
:10049000e00f5200fbff32001e4fe8001e427800c2
:1004a0008482fb002e029000848f5200edff350005
:1004b0000080fa00000006000400fa00000f780037
:1004c000110798009e0090001e007800dfff0700d3
:1004d000cbff07000080fa00000006000600fa00cb
:1004e00010079800210798000042eb00044f7800a5
:1004f0000e0037009e4278000582fb009e029000ad
:1005000004824200144278000482fb00d410880068
:1005100000000000c510800004102000048262006a
:10052000e00f5200fbff32001e4fe8001e42780031
:100530008482fb002e029000848f5200edff350074
:100540000080fa00000006000400fa00000f7800a6
:10055000110798009e0090001e007800dfff070042
:10056000a7ff07000080fa00000006000400fa0060
:10057000000f7800110798001e00780099ff07000f
:1005800000027800840078001e007800afff0700aa
:10059000a20020009e0090000081200083ff070041
:1005a000008120008fff070000027800840078009f
:1005b00000812000c0ff07000080fa000000060054
:1005c0000400fa00000f7800110798001e00780060
:1005d00084ff070000027800840078001e00780085
:1005e0009aff0700a20020009e00900000812000da
:1005f0006eff0700008120007aff070000027800ec
:10060000840078000081200090ff07000080fa003d
:10061000000006000200fa00000f78001e007800bb
:1006200070ff070000027800840078001e00780048
:10063000a1ff07000080fa00000006000200fa0097
:10064000000f78001e00780066ff070000027800a7
:10065000840078001e0078007cff07000080fa000c
:10066000000006000600fa00100798002107980015
:100670000042eb00044f7800240037009e427800cf
:100680000582fb00040242009e02900004824200a8
:100690001402780004427800144798001e4290002b
:1006a0000402fb00d410880000000000c510800088
:1006b0000410200004826200e00f5200fbff3200b1
:1006c0009e4278000582fb00040242009e029000d8
:1006d000048242001402780048a2de00044278003e
:1006e000144798001e4290000402fb00d4108800ba
:1006f00000000000c5108000041020000482620089
:10070000e00f5200fbff32001e4fe8001e4278004f
:100710008482fb002e0290000482d100848f52005c
:10072000d6ff35000080fa00000006000a00fa003b
:1007300040079800b4da2c00140798004400200009
:10074000240798004e0290003407980064002000af
:10075000040f78000e82e8009e0078000400780004
:100760003aff07000080fa00000006000e00fa00c1
:100770005007980061079800b4da2c00140798001d
:1007800044002000240798005e029000340798007f
:100790006e0290004407980084002000040f780047
:1007a0000e82e8009e0078000400780027ff070012
:1007b0000080fa00000006001200fa0060079800ae
:1007c00071079800020f9800b4da2c001407980003
:1007d00064002000240798006e02900034079800ff
:1007e0007e029000440798000e0a9000540798007b
:1007f000a4002000040f78000e82e8009e0078001c
:100800000400780011ff07000080fa0000000600d5
:100810001600fa0070079800010f9800120f980058
:10082000230f9800b4da2c001407980084002000ed
:10083000240798007e029000340798000e0a90006a
:10084000440798001e0a9000540798002e0a900052
:1008500064079800c4002000040f78000e82e800ae
:100860009e00780004007800f8fe07000080fa007f
:10087000000006000200fa00000f780002003700b6
:10088000000000001e0fe9001e027800e00f520079
:10089000fbff3a000080fa00000006000000fa00aa
:1008a000040120002408880004cc210014088800da
:1008b0000002eb00040888008460a90005e1a8009c
:1008c0008c60a8000080fa00000006000000fa001a
:1008d000040120000409880004e62000e4088800e0
:1008e0000002eb00c408880086c0a90021e1a8002e
:1008f0008ec0a90000000000350480000404200020
:1009000004826200e00f5200fbff320021e1a900e7
:100910000080fa00000006000200fa00000f7800d4
:10092000eaff07001e0fe9001e027800e00f5200e8
:10093000fbff3c000080fa00000006000200fa0005
:10094000000f7800b404800004c0a00004d0a00010
:1009500004e0a000b404880084e0a9001061a900ac
:1009600013e1a90013a1a90012c1a90094088000f5
:100970000440a0000450a100940888001221a9009e
:1009800004992000740888000002eb0054088800d5
:1009900084e0a90013e1a8008ce0a8000080fa0020
:1009a000000006003600f800809fbe00829fbe0057
:1009b000849fbe00869fbe000000fa008460a900ec
:1009c000c48d2000040001000080fa004f03be0027
:1009d0004f02be004f01be004f00be003600f900be
:1009e00000400600801f78000000fa0084e0a900a3
:1009f0000080fa004f00780000400600801f780059
:100a00000000fa0086e0a9000080fa004f0078009c
:100a1000004006000000fa000002eb00243a8800c3
:100a2000a000200093ff07000082eb00441588001f
:100a3000a00020008fff07000082eb000416880052
:100a4000a00020008bff07000082eb003416880016
:100a5000a000200087ff07000082eb0064168800da
:100a6000a000200083ff07000082eb00941688009e
:100a7000a00020007fff07000082eb00f416880032
:100a8000a00020007bff070020010700a00020003d
:100a9000a1ff07000082eb0004168800a0002000e0
:100aa00074ff07000082eb0034168800a0002000cd
:100ab00070ff0700f4ff210064168800a0002000ea
:100ac0006cff0700042f2f0094168800a000200060
:100ad00068ff070024f92f00f4168800a00020000a
:100ae00064ff07000002eb0014168800a00020003d
:100af00060ff07000002eb0044168800a000200001
:100b00005cff07000002eb0074168800a0002000c4
:100b100058ff07000002eb00a4168800a000200088
:100b200054ff07000002eb0004178800a00020001b
:100b300050ff070005a1a90004c1a9000080fa0028
:100b4000000006000000fa001061a9001e61a90063
:100b5000b404800004c0a10004d0a10004e0a000ff
:100b6000b404880084e0a9008ce0a900a4048000fb
:100b700004c0a00004d0a00004e0a000a4048800e9
:100b80008460a9008c60a900f404800004c0a10066
:100b900004d0a10004e0a000f40488008240a90071
:100ba00086e0a9008ee0a9000080fa00000006009f
:100bb0000000fa000002eb00840c88000002eb0049
:100bc000b40c880011e1a9000000000011a1a900e7
:100bd0000000000010c1a900000000001021a900c1
:100be000000000001061a9000000000084088000df
:100bf0000440a1000450a100840888000000000007
:100c000084c0a9000000000011e1a800840c80004d
:100c10000400a1000410a0000420a000840c88009f
:100c2000b40c80000400a1000410a0000420a00067
:100c3000b40c8800f4ff2000640888000000000065
:100c4000f4ff200074088800000000000002eb00a0
:100c5000640c880000000000f4ff2000d408880025
:100c6000000000000002eb00940c8800000000006f
:100c7000e4ff200005002000e4448800f5448800db
:100c80000080fa00000006000000fa0017e2a80049
:100c900000000000000000000000000019e2a900b0
:100ca00000000000c41080000460a1000470a100d6
:100cb000c410880000000000b41080000410a100df
:100cc0000420a100b4108800000000001602a90052
:100cd0000000000016a2a90000000000f40020009f
:100ce000f4108800000000001942a8000000000075
:100cf0008700a900000000008720a9000000000074
:100d00008f00a900000000008f20a9000000000053
:100d10000080fa00000006001000fa00700798003a
:100d2000143a8000040f7800f48f2f001e0f620029
:100d30001e02780048a2de00040f78007e029000b8
:100d4000050020007600200007002000860f5200da
:100d5000878f5a0068003e000460010007003700da
:100d60000b0037000f003700130037006400370016
:100d70006300370062003700140037009e027800dd
:100d80007e02900005027200040f78001400370004
:100d90009e0278007e02900005027200040f780027
:100da0000f0037009e0278007e029000050272005c
:100db000040f78000a0037009e0278007e0290003f
:100dc00005027200040f7800050037009e027800cb
:100dd0007e02900005027200040f780000000000ff
:100de00084c7b30024479800a4c9b30034479800cf
:100df000247420000402e8002407980014028000f4
:100e00004522de00674262000482fb00340798003e
:100e10009402800044079800ff3ffc001402800009
:100e20000450a0000460a0000470a0001402880018
:100e30004e02900094028800000088002e0390006b
:100e40002e429000be4290009e037800044b780032
:100e5000054b7800074b780064c4b3002447980022
:100e600074c5b30034479800247420002407980008
:100e7000143a8000044278000404a000244f980033
:100e8000ae0390002e429000be4290002e4b900088
:100e9000844b7800854b7800864b7800000000007a
:100ea000143a800061026200e00f5200fcff3a0039
:100eb0009402800064079800ff3ffc003e0290000f
:100ec00004427800674262000482fb00670262000d
:100ed0004522dd0016028000f5f12f008502630037
:100ee00005027200140288006e02900094028800cd
:100ef00000008800030037000000000001003700f8
:100f0000000000000080fa00000006000200fa0065
:100f10000002eb00040f7800020037006bfe0700b0
:100f20001e0fe8001e027800e10f5200fbff3400a4
:100f30007000200078ff0700c05d20004dfe070014
:100f40000080fa00000006000800fa00008fbe00d2
:100f500022079800330798001e02be00e00f5200df
:100f6000e08f5a0010003500e4448000f544800012
:100f70001e03be00840f5300858f5b000300340006
:100f8000e4448000f5448000048fbe00d1a2a80094
:100f900000000000d1c2a900000000001e0278007d
:100fa000940c880013003700e4448000f54480006e
:100fb00060021200e0821a00be0f5200ae8f5a008b
:100fc00005003400e4448000f54480006002120013
:100fd000e0821a00048fbe00d1a2a9000000000028
:100fe000d1c2a800000000001e0278000402ea003e
:100ff000940c88002e029000be029000e00f520078
:10100000e08f5a0012003500e4448000f54480006f
:101010002e039000be039000840f5300858f5b0069
:1010200004003400e4448000f54480002407980064
:1010300035079800d702a80000000000e2c2a9000e
:10104000000000002e029000640c8800160037009b
:10105000e4448000f544800060031200e0831a003d
:101060002e029000be029000840f5300858f5b001b
:1010700006003400e4448000f54480006002120061
:10108000e0821a002407980035079800d702a900cb
:1010900000000000e2c2a800000000002e02900044
:1010a0000402ea00640c88000080fa0000000600d8
:1010b0000000fa00c8e2a900441680004722de00c2
:1010c00061426200e04f5200020032000002eb0079
:1010d00002003700c8c2a8001400200004007800f5
:1010e0000080fa00000006000000fa00c982a80093
:1010f000b4002000040078000080fa000000060020
:101100000000fa00881f7800e9ff0700000478005b
:10111000f5ff07000002780084024400d4448000f8
:1011200004825200040078004f0478000080fa0026
:10113000000006000600fa00200798002e0290002a
:10114000e00f520002003a00d1e2a900010037008e
:10115000d1e2a8000002eb00040f78000002eb00cf
:10116000140798002e029000040f7800a444800019
:101170009e02780004aab9000402780014079800bf
:10118000144080009e021200b444800004aab900fa
:10119000040278009e029000048242001407980026
:1011a0001e027800144088001e029000040078009f
:1011b0000080fa00000006000200fa00d0ff0700dd
:1011c0000002780004007800daff070000027800cf
:1011d000040f7800c44480001e025200cfa2de003b
:1011e000c64480001e034300cfb3de000401be00ee
:1011f0000600be0054ff07000080fa000000060051
:101200000000fa0003fe07004efe07003fff070044
:1012100010002000c0fd070065fe07009afe0700d1
:1012200010002000bcfd07000000000045168000f3
:101230000410200004826200e00f5200fbff3a001d
:1012400020032000b4fd07000000000045168000c8
:101250000410200004826200e00f5200fbff320005
:1012600020032000acfd0700d1e2a800d602a800b0
:10127000e202a800d622a800403d2000a6fd0700fb
:10128000d622a90085fd0700000000008c60a800a0
:04129000ffff370025
:020000040000fa
:101294000008000094000000000000009408000012
:1012a4000c0000000200000032006400001405007d
:0c12b4000d0036001000000000000000db
:020000040000fa
:0200000401f009
:04000000e3390000e0
:020000040000fa
:0200000401f009
:04000400ff7f00007a
:020000040000fa
:0200000401f009
:040008006c7f000009
:020000040000fa
:0200000401f009
:04001400ffff0000ea
:020000040000fa
:0200000401f009
:04001800feff0000e7
:00000001FF
