:020000040000fa
:080000000001040000000000f3
:020000040000fa
:100008009a0100009a0100009a0100009a0100007c
:100018009a0100009a0100009a0100009a0100006c
:100028009a0100009a0100009a0100009a0100005c
:100038009a0100009a0100009a0100009a0100004c
:100048009a0100009a0100009a0100009a0100003c
:100058009a0100009a0100009a0100009a0100002c
:100068009a0100009a0100009a0100009a0100001c
:100078009a0100009a0100009a0100009a0100000c
:100088009a0100009a0100009a0100009a010000fc
:100098009a0100009a0100009a0100009a010000ec
:1000a8009a0100009a0100009a0100009a010000dc
:1000b8009a0100009a0100009a0100009a010000cc
:1000c8009a0100009a0100009a0100009a010000bc
:1000d8009a0100009a0100009a0100009a010000ac
:1000e8009a0100009a0100009a0100009a0100009c
:0800f8009a0100009a010000ca
:020000040000fa
:100108009a0100009a0100009a0100009a0100007b
:100118009a0100009a0100009a0100009a0100006b
:100128009a0100009a0100009a0100009a0100005b
:100138009a0100009a0100009a0100009a0100004b
:100148009a0100009a0100009a0100009a0100003b
:100158009a0100009a0100009a0100009a0100002b
:100168009a0100009a0100009a0100009a0100001b
:100178009a0100009a0100009a0100009a0100000b
:100188009a0100009a0100009a0100009a010000fb
:100198009a0100009a0100009a0100009a010000eb
:1001a8009a0100009a0100009a0100009a010000db
:1001b8009a0100009a0100009a0100009a010000cb
:1001c8009a0100009a0100009a0100009a010000bb
:1001d8009a0100009a0100009a0100009a010000ab
:1001e8009a0100009a0100009a0100009a0100009b
:0801f8009a0100009a010000c9
:020000040000fa
:100200000f8020000eff20000e018800000000007b
:10021000000020000000e000020032000001200089
:10022000200288000c000700804e20000100200002
:1002300011000700000020000000e0000200320072
:100240000000020000000000d804020000000000ce
:100250000040da000000fe004440a9000000200039
:100260000000e0000300320000002000a001880030
:100270004440a8000000060091018800800078003a
:100280000000eb0015003700e280400032a0b4000f
:100290009101ba00e280400032a0b4009102ba009d
:1002a000e280400032a0b4000002eb00472bde00e9
:1002b000f507b200602ce10004003a000059eb00a1
:1002c0008301e900fdff3e00040037006128e100e2
:1002d000010032000082eb00040007001101ba00a7
:1002e0000200e000e8ff3a00000006003159ba00c1
:1002f0008301e9000c0032002159ba008301e900b2
:10030000080032000400e00003003a00e2804000f0
:1003100032a0b400f5ff370011d9ba008301e9001b
:10032000faff3a008100e800e180400032a0b4000a
:0c033000000006000040da000000fe00a3
:020000040000fa
:10033c000200fa00000f78000200370000000000f5
:10034c001e0fe9001e027800e00f5200fbff3a007e
:10035c000080fa00000006000000fa0004012000f2
:10036c002408880004cc2100140888000002eb004b
:10037c00040888008460a90005e1a8008c60a8002e
:10038c000080fa00000006000000fa0004012000c2
:10039c000409880004e62000e40888000002eb0051
:1003ac00c408880086c0a90021e1a8008ec0a9005d
:1003bc000000000035048000040420000482620068
:1003cc00e00f5200fbff320021e1a9000080fa008f
:1003dc00000006000200fa00000f7800eaff070098
:1003ec001e0fe9001e027800e00f5200fbff3c00dc
:1003fc000080fa00000006000200fa00000f7800ee
:10040c00b404800004c0a00004d0a00004e0a0004c
:10041c00b404880084e0a9001061a90013e1a900cc
:10042c0013a1a90012c1a900940880000440a000e7
:10043c000450a100940888001221a90004992000fe
:10044c00740888000002eb005408880084e0a900be
:10045c0013e1a8008ce0a8000080fa000000060060
:10046c000000fa000002eb00243a8800a0002000f3
:10047c00afff07000082eb0044158800a0002000ad
:10048c00abff07000082eb0004168800a0002000e0
:10049c00a7ff07000082eb0034168800a0002000a4
:1004ac00a3ff07000082eb0064168800a000200068
:1004bc009fff07000082eb0094168800a00020002c
:1004cc009bff07000082eb00f4168800a0002000c0
:1004dc0097ff070019010700a0002000bdff0700cf
:1004ec000082eb0004168800a000200090ff07009b
:1004fc000082eb0034168800a00020008cff07005f
:10050c00f4ff210064168800a000200088ff07007b
:10051c00042f2f0094168800a000200084ff0700f1
:10052c0024f92f00f4168800a000200080ff07009b
:10053c000002eb0014168800a00020007cff0700ce
:10054c000002eb0044168800a000200078ff070092
:10055c000002eb0074168800a000200074ff070056
:10056c000002eb00a4168800a000200070ff07001a
:10057c000002eb0004178800a00020006cff0700ad
:10058c0005a1a90004c1a9001061a9001e61a90060
:10059c00b404800004c0a10004d0a10004e0a000b9
:1005ac00b404880084e0a9008ce0a900a4048000b5
:1005bc0004c0a00004d0a00004e0a000a4048800a3
:1005cc008460a9008c60a900f404800004c0a10020
:1005dc0004d0a10004e0a000f40488008240a9002b
:1005ec0086e0a9008ee0a9000080fa000000060059
:1005fc000000fa000002eb00840c88000002eb0003
:10060c00b40c880011e1a9000000000011a1a900a0
:10061c000000000010c1a900000000001021a9007a
:10062c00000000001061a900000000008408800098
:10063c000440a1000450a1008408880000000000c0
:10064c0084c0a9000000000011e1a800840c800007
:10065c000400a1000410a0000420a000840c880059
:10066c00b40c80000400a1000410a0000420a00021
:10067c00b40c8800f4ff200064088800000000001f
:10068c00f4ff200074088800000000000002eb005a
:10069c00640c880000000000f4ff2000d4088800df
:1006ac00000000000002eb00940c88000000000029
:1006bc000080fa00000006000000fa0017e2a80013
:1006cc0000000000000000000000000019e2a9007a
:1006dc0000000000c41080000460a1000470a100a0
:1006ec00c410880000000000b41080000410a100a9
:1006fc000420a100b4108800000000001602a9001c
:10070c000000000016a2a90000000000f400200068
:10071c00f4108800000000001942a800000000003e
:10072c008700a900000000008720a900000000003d
:10073c008f00a900000000008f20a900000000001d
:10074c000080fa00000006001000fa007007980004
:10075c00143a8000040f7800f48f2f001e0f6200f3
:10076c001e02780048a2de00040f78007e02900082
:10077c00050020007600200007002000860f5200a4
:10078c00878f5a0068003e000460010007003700a4
:10079c000b0037000f0037001300370064003700e0
:1007ac006300370062003700140037009e027800a7
:1007bc007e02900005027200040f780014003700ce
:1007cc009e0278007e02900005027200040f7800f1
:1007dc000f0037009e0278007e0290000502720026
:1007ec00040f78000a0037009e0278007e02900009
:1007fc0005027200040f7800050037009e02780095
:10080c007e02900005027200040f780000000000c8
:10081c0084c7b30024479800a4c9b3003447980098
:10082c00247420000402e8002407980014028000bd
:10083c004522de00674262000482fb003407980008
:10084c009402800044079800ff3ffc0014028000d3
:10085c000450a0000460a0000470a00014028800e2
:10086c004e02900094028800000088002e03900035
:10087c002e429000be4290009e037800044b7800fc
:10088c00054b7800074b780064c4b30024479800ec
:10089c0074c5b300344798002474200024079800d2
:1008ac00143a8000044278000404a000244f9800fd
:1008bc00ae0390002e429000be4290002e4b900052
:1008cc00844b7800854b7800864b78000000000044
:1008dc00143a800061026200e00f5200fcff3a0003
:1008ec009402800064079800ff3ffc003e029000d9
:1008fc0004427800674262000482fb0067026200d7
:10090c004522dd0016028000f5f12f008502630000
:10091c0005027200140288006e0290009402880096
:10092c0000008800030037000000000001003700c1
:10093c00000000000080fa00000006000200fa002f
:10094c000002eb00040f7800020037008efe070057
:10095c001e0fe8001e027800e10f5200fbff34006e
:10096c007000200078ff0700c05d200070fe0700bb
:10097c000080fa00000006000000fa00b8fe070034
:10098c00eeff07001000200092fe070018ff070082
:10099c0049ff0700100020008efe07000080fa00bf
:1009ac00000006000000fa000002eb00840c880036
:1009bc000002eb00b40c8800040078000080fa0000
:0409cc000000060021
:020000040000fa
:0409d0000000000023
:020000040000fa
:0200000401f009
:04000000e3390000e0
:020000040000fa
:0200000401f009
:04000400ff7f00007a
:020000040000fa
:0200000401f009
:040008006c7f000009
:020000040000fa
:0200000401f009
:04001400ffff0000ea
:020000040000fa
:0200000401f009
:04001800feff0000e7
:00000001FF
